:1000000028C04CC049C34AC049C069C547C046C0A2
:1000100045C044C043C042C041C052C16EC101028C
:100020000000040000000000010204081020200469
:100030001008020202020202020202020000000094
:1000400036000000000038000000000037009F006C
:10005000A50011241FBECFE5D2E0DEBFCDBF10E06A
:10006000A0E6B0E0ECE1FFE002C005900D92A838F8
:10007000B107D9F721E0A8E8B0E001C01D92AD3288
:10008000B207E1F710E0C0E5D0E003C02297FE011F
:1000900035D7CE34D107D1F7A5D634C7B1CF8091AB
:1000A0006200E0916000F0E0EE0FFF1FE955FF4FA6
:1000B000882371F061818091A7009091A800892B1D
:1000C00009F0606888ED90E0DED11092620008953A
:1000D000608188ED90E0D7D181E08093620008953F
:1000E00064E088ED90E0CDD16FE470E088ED90E0C1
:1000F000CCC160E088E05DD440E855E260E070E0AB
:1001000088E890E0C5C3F5DF34D56093AC00709308
:10011000AD008093AE009093AF00089588E890E022
:1001200019C4B8D188E0B3D49093A8008093A700F5
:1001300089E011D49093AA008093A900089520E04B
:1001400042E060E088E890E075C388E890E01EC374
:10015000CF92DF92EF92FF920CD56B017C0188E881
:1001600090E036D2181619065CF41092610063E62E
:1001700070E088E890E0FF90EF90DF90CF90AAC504
:100180008091AC009091AD00A091AE00B091AF0015
:10019000C81AD90AEA0AFB0A88E8C81683E1D80611
:1001A000E104F10438F0BADF9BDF81E08093AB001B
:1001B00010926100FF90EF90DF90CF90089588E05B
:1001C00066D49093A8008093A70089E0C4D390934D
:1001D000AA008093A90088E890E0FAD118161906C1
:1001E000ECF488E890E067D18093B00062E070E0C2
:1001F00080E090E0EED4E091B000E153E23070F4A2
:10020000E093B000F0E0EE0FFF1FE955FF4F608173
:1002100071814AE050E088E890E0D0C5089580916F
:100220006100811195CF8091AB0081117ACFC7CF4A
:100230001092C3001092C4001092B1001092B2004C
:100240008093D70087B3856087BBC29AC09AB8985D
:1002500088EA8DB980EF8EB908959091B2009F5FC2
:100260009F702091B1009217E1F3E92FF0E0ED5477
:10027000FF4F80839093B20008952091C400909125
:10028000C30081E0291301C080E008959091C4006B
:100290008091C300981791F09091C4008091C300A1
:1002A000981730F48091C4009091C300805F04C01F
:1002B0008091C4009091C300891B089580E0089547
:1002C0001F920F920FB60F9211248F931092D600A7
:1002D0001092D500B898B29B02C0B09BFCCFB099E9
:1002E00002C088EF01C088EA8DB980EF8EB98F9186
:1002F0000F900FBE0F901F9018951F920F920FB680
:100300000F9211242F933F934F935F936F937F939B
:100310008F939F93AF93BF93CF93DF93EF93FF930D
:100320008091D5009091D6008230910509F460C08B
:1003300028F4009761F0019711F190C08430910585
:1003400009F45FC0C8F0059709F464C087C08FB195
:10035000882331F08FB186959091D700891345C0DD
:10036000E091DD00F091DE00309709F00995789B6F
:100370006BC081E090E06AC08FB1811136C080917E
:10038000D9009091DA00892B51F077DF882339F07A
:10039000C091D900D091DA0079DFFE010995E09192
:1003A000DB00F091DC00309709F009959091B200E4
:1003B0008091B1009817A9F08091B1008F5F8F7084
:1003C0008093B100E091B100F0E0ED54FF4F8081E7
:1003D0008FB982E090E09093D6008093D500B89AD0
:1003E00017C0B8981FB88EE78EB988EA8DB910C0CB
:1003F00083E090E09093D6008093D500B8981FB822
:100400002BC085E090E09093D6008093D500B898FB
:1004100080E723C08091C4008F5F8F708093C400F9
:100420009091C4008091C300981307C08091C400CC
:10043000815F8F708093C40007C0E091C4008FB1CA
:10044000F0E0EB53FF4F808384E090E09093D60080
:100450008093D5001FB8B89A8EE78EB9FF91EF91BF
:10046000DF91CF91BF91AF919F918F917F916F91CC
:100470005F914F913F912F910F900FBE0F901F9062
:100480001895862FD5CE862FE8CE7093DC0060932A
:10049000DB0008958091D9009091DA00892B51F00A
:1004A000759B08C0F3DE882329F0E091D900F09114
:1004B000DA00099408952091210130912201281732
:1004C0003907B9F49091DF008091E000981789F026
:1004D000E091DF00F0E0EF51FF4F80812091DF00DD
:1004E00030E02F5F3F4F2F7333272093DF0090E0E2
:1004F00008958FEF9FEF08951F93CF93DF93DC0153
:100500005C968D919C915D97009749F481E090E015
:1005100013969C938E93129780E090E03BC0519687
:10052000ED91FC91529750962C915097322F309527
:100530001FB75E964C915E9741FB772770F941FD9E
:100540006095F8944081772311F0422B01C043233A
:100550004083EC012197F1F748E0508160FF02C031
:10056000522B01C053235083EC012197F1F766957C
:10057000415099F78081772311F0832301C0822BAA
:1005800080831FBF5C968D919C915D970197F1F7D9
:1005900081E090E0DF91CF911F910895209121019A
:1005A000309122012817390781F49091DF00809162
:1005B000E000981751F0E091DF00F0E0EF51FF4FBD
:1005C0008081992787FD909508958FEF9FEF08957B
:1005D00020912101309122012817390769F4809177
:1005E000E0002091DF0090E0805C9F4F821B91092A
:1005F00060E470E01CD4089580E090E008952091BC
:100600002101309122012817390739F48FB7F89466
:100610001092E0001092DF008FBF0895E091210159
:10062000F0912201E817F90769F4A389B4899C9134
:100630008589809589238C93109222011092210143
:1006400081E0089580E00895CF93DF93EC018A8DD7
:100650009B8D892BE9F080912101909122018C17CB
:100660009D07B1F0009709F0D9DF8E8D8E7F8E8FB8
:100670001092E0001092DF00D0932201C09321017C
:10068000EB89FC8980819D89892B808381E001C071
:1006900080E0DF91CF9108951F920F920FB60F92D5
:1006A00011242F933F934F935F936F937F938F9377
:1006B0009F93AF93BF93EF93FF93E0912101F0914C
:1006C0002201309709F451C0868DA685B78595859E
:1006D00081FF04C08C91892329F447C08C91892320
:1006E00009F043C0A389B4899C91858980958923A9
:1006F0008C93868997890197F1F7208D318DA68596
:10070000B785758558E040E0C9010197F1F7842F5E
:1007100090E095958795482F6C91672309F0406884
:10072000515091F7868D81FD40958091E00090E0D9
:1007300001968F7399272091DF00281749F0A09127
:10074000E000B0E0AF51BF4F4C938093E00003C096
:10075000868D8160868F828D938D0197F1F7A389B5
:10076000B4898C919589892B8C93FF91EF91BF91DE
:10077000AF919F918F917F916F915F914F913F9139
:100780002F910F900FBE0F901F9018952AE630E022
:10079000FC013183208342CF1F93CF93DF93EC0181
:1007A000162F6E8D6695617081E06827812F3AD192
:1007B00061E0812FFED0812F90E0FC01E85DFF4FCA
:1007C000E491E88BFC01EE5CFF4FE491F0E0EE0F6A
:1007D000FF1FEE5BFF4F859194919A8B898BDF9180
:1007E000CF911F9108951F93CF93DF93EC01162FA4
:1007F00060E0812FDED08E8D81FD03C061E0812F0E
:1008000011D11C87812F90E0FC01E85DFF4FE4913E
:10081000ED87FC01EE5CFF4FE491F0E0EE0FFF1F6F
:10082000E45CFF4F859194919F878E87DF91CF91F4
:100830001F910895FF920F931F93CF93DF93EC01C5
:10084000F62E522F1B821A8208EE13E020E030E0D1
:100850000C831D832E833F838AE690E099838883EF
:100860001F8A1E8A198E188E1B8E1A8E1D8E1C8E44
:100870008E8D8E7F50FB81F98E8F642FCE018CDFA1
:100880006F2DCE01DF91CF911F910F91FF90ABCFD4
:10089000CF93DF93EC019A01AB011B8E1A8E198E58
:1008A000188E1F8A1E8A60E874E88EE190E0F4D208
:1008B000C9012430310520F0B9016350710902C02B
:1008C00061E070E07D8F6C8F6C85653008F03EC014
:1008D000B901769567956431710518F06351710916
:1008E00002C061E070E07F8B6E8B069718F0C90143
:1008F000059702C081E090E0998F888FC90163E07D
:1009000070E084D296958795969587958D30910560
:1009100010F00C9702C081E090E09B8F8A8F8BB71C
:1009200080628BBF2C85253018F485E390E002C0EF
:1009300080E090E09C8B8B8B81E001C0880F2A9532
:10094000EAF78D8B8C8D9D8D0197F1F7CE01DF91AC
:10095000CF917ACE63CE863008F086508770909122
:1009600023019295990F990F907C982B97B9369AFD
:100970003699FECF84B125B190E0922B0895823054
:1009800081F018F4813051F00895833019F08430EB
:1009900009F008958CB58F7D8CBD08958AB58F7749
:1009A00002C08AB58F7D8ABD08958CB580648CBDE8
:1009B0000895CF93DF9390E0FC01E85DFF4F249111
:1009C000FC01EE5CFF4F8491882349F190E0880F91
:1009D000991FFC01E85BFF4FA591B4918E5B9F4F7F
:1009E000FC01C591D4919FB7611108C0F8948C9116
:1009F000209582238C93888182230AC0623051F42F
:100A0000F8948C91322F309583238C938881822B9C
:100A1000888304C0F8948C91822B8C939FBFDF91C4
:100A2000CF9108950F931F93CF93DF931F92CDB76C
:100A3000DEB7282F30E0F901E25EFF4F8491F90123
:100A4000E85DFF4F1491F901EE5CFF4F0491002324
:100A5000C1F0882319F0698392DF6981E02FF0E00B
:100A6000EE0FFF1FEE5BFF4FA591B4919FB7F89477
:100A70008C91611103C01095812301C0812B8C934F
:100A80009FBF0F90DF91CF911F910F910895CF934A
:100A9000DF93282F30E0F901E25EFF4F8491F901E6
:100AA000E85DFF4FD491F901EE5CFF4FC491CC2378
:100AB00089F0811164DFEC2FF0E0EE0FFF1FE45CA2
:100AC000FF4FA591B4912C912D2381E090E021F46A
:100AD00080E002C080E090E0DF91CF9108951F9206
:100AE0000F920FB60F9211242F933F938F939F93E2
:100AF000AF93BF938091250190912601A09127018A
:100B0000B09128013091240126E0230F2D3720F4E5
:100B10000296A11DB11D05C029E8230F0396A11D52
:100B2000B11D209324018093250190932601A09369
:100B30002701B09328018091290190912A01A09169
:100B40002B01B0912C010196A11DB11D80932901AB
:100B500090932A01A0932B01B0932C01BF91AF91E8
:100B60009F918F913F912F910F900FBE0F901F90EB
:100B700018952FB7F8946091250170912601809106
:100B80002701909128012FBF08953FB7F8948091D5
:100B9000290190912A01A0912B01B0912C0122B73B
:100BA00008B601FE05C02F3F19F00196A11DB11D29
:100BB0003FBF6627782F892F9A2F620F711D811DE5
:100BC000911D43E0660F771F881F991F4A95D1F743
:100BD0000895CF92DF92EF92FF92CF93DF936B0154
:100BE0007C01D3DFEB01C114D104E104F10479F0FD
:100BF00003D1CBDF6C1B7D0B683E7340A0F381E01B
:100C0000C81AD108E108F108C851DC4FECCFDF91D8
:100C1000CF91FF90EF90DF90CF90089578948AB5B0
:100C200082608ABD8AB581608ABD83B7826083BFD6
:100C300083B7816083BF89B7826089BF80B78260D4
:100C400080BF80B7816080BF329A319A3098379ADE
:100C50000895CF92DF92EF92FF920F931F93CF935D
:100C6000DF936C017A01EB01E60EF71E00E010E065
:100C7000CE15DF0561F06991D601ED91FC910190EF
:100C8000F081E02DC6010995080F191FF1CFC801A9
:100C9000DF91CF911F910F91FF90EF90DF90CF9058
:100CA00008956115710581F0DB010D900020E9F7D1
:100CB000AD0141505109461B570BDC01ED91FC91F0
:100CC0000280F381E02D099480E090E0089566E7CA
:100CD00070E0E7CF0F931F93CF93DF93EC01E1DF39
:100CE0008C01CE01F4DF800F911FDF91CF911F9116
:100CF0000F9108958F929F92AF92BF92CF92DF9201
:100D0000EF92FF920F931F93CF93DF93CDB7DEB790
:100D1000A1970FB6F894DEBF0FBECDBF7C01C42EE5
:100D2000E52FCB01D22E19A221E02D1510F02AE0DB
:100D3000D22E8E010F5D1F4F8D2C912CA12CB12C2A
:100D40006C2D7E2FA501940185D08D2D622F55D05D
:100D5000C81A8C2D015011098A3014F4805D01C02D
:100D6000895CF8018083211531054105510521F089
:100D7000C22EE32FCA01E4CFB801C70192DFA196CA
:100D80000FB6F894DEBF0FBECDBFDF91CF911F919C
:100D90000F91FF90EF90DF90CF90BF90AF909F901A
:100DA0008F9008952115310541F4DC01ED91FC91FE
:100DB0000190F081E02D642F09949CCF0F931F9335
:100DC000CF93DF93EC019A01AB0160E070E0EADFC2
:100DD0008C01CE017CDF800F911FDF91CF911F919D
:100DE0000F9108951BDFE1DD8ED9C0E0D0E017DA66
:100DF0002097E9F305D9FBCF0895002480FD060E66
:100E0000660F11F08695D1F7802D0895002455279F
:100E100004C0080E591F880F991F009729F0769576
:100E20006795B8F37105B9F7802D952F089597FB55
:100E3000072E16F4009406D077FD08D049D007FCA1
:100E400005D03EF4909581959F4F089570956195DA
:100E50007F4F0895A1E21A2EAA1BBB1BFD010DC0F6
:100E6000AA1FBB1FEE1FFF1FA217B307E407F5075A
:100E700020F0A21BB30BE40BF50B661F771F881F36
:100E8000991F1A9469F760957095809590959B01CC
:100E9000AC01BD01CF010895052E97FB16F4009417
:100EA0000FD057FD05D0D6DF07FC02D046F408C0AE
:100EB00050954095309521953F4F4F4F5F4F089586
:100EC00090958095709561957F4F8F4F9F4F0895B6
:100ED000AA1BBB1B51E107C0AA1FBB1FA617B70760
:100EE00010F0A61BB70B881F991F5A95A9F780957C
:100EF0009095BC01CD010895EE0FFF1F0590F49170
:100F0000E02D099410E0C0E5D0E003C0FE01F6DF5B
:0C0F10002296C235D107D1F7F894FFCF2C
:100F1C000101014F4B00000000007C022906E80291
:100F2C005B02CE02FF020D0A006E616E00696E66F6
:080F3C00006F7666002E000034
:00000001FF
