:100000000EC028C027C026C025C0A6C123C022C05C
:1000100021C020C01FC01EC01DC08BC0A7C011249E
:100020001FBECFE5D2E0DEBFCDBF10E0A0E6B0E05E
:10003000EAE3F4E002C005900D92A236B107D9F7C9
:1000400020E0A2E6B0E001C01D92AC39B207E1F7B2
:10005000E8D1F1C1D5CF80916000882341F0609153
:1000600063008BE890E048D11092600008956091A1
:1000700062008BE890E040D181E0809360000895B9
:1000800064E08BE890E036D16BE270E08BE890E0C2
:1000900035C139D189E048D19093630080936200E3
:1000A00008951092760010927700109264001092DA
:1000B000650080938A0087B3856087BBC29AC09A27
:1000C000B89888EA8DB980EF8EB90895909165004F
:1000D0009F5F9F70209164009217E1F3E92FF0E099
:1000E000EA59FF4F8083909365000895209177002F
:1000F0009091760081E0291301C080E008959091ED
:10010000770080917600981791F090917700809118
:100110007600981730F48091770090917600805F98
:1001200004C08091770090917600891B089580E04B
:1001300008951F920F920FB60F9211248F93109271
:10014000890010928800B898B29B02C0B09BFCCF87
:10015000B09902C088EF01C088EA8DB980EF8EB9EE
:100160008F910F900FBE0F901F9018951F920F92B6
:100170000FB60F9211242F933F934F935F936F937A
:100180007F938F939F93AF93BF93CF93DF93EF931F
:10019000FF9380918800909189008230910509F445
:1001A00060C028F4009761F0019711F190C084308D
:1001B000910509F45FC0C8F0059709F464C087C0D1
:1001C0008FB1882331F08FB1869590918A00891381
:1001D00045C0E0919000F0919100309709F00995A9
:1001E000789B6BC081E090E06AC08FB1811136C00E
:1001F00080918C0090918D00892B51F077DF8823BE
:1002000039F0C0918C00D0918D0079DFFE01099505
:10021000E0918E00F0918F00309709F00995909150
:100220006500809164009817A9F0809164008F5F49
:100230008F7080936400E0916400F0E0EA59FF4F12
:1002400080818FB982E090E090938900809388004C
:10025000B89A17C0B8981FB88EE78EB988EA8DB9DA
:1002600010C083E090E09093890080938800B89854
:100270001FB82BC085E090E09093890080938800A0
:10028000B89880E723C0809177008F5F8F7080934C
:1002900077009091770080917600981307C0809145
:1002A0007700815F8F708093770007C0E0917700BF
:1002B0008FB1F0E0E858FF4F808384E090E09093A6
:1002C0008900809388001FB8B89A8EE78EB9FF9195
:1002D000EF91DF91CF91BF91AF919F918F917F91DE
:1002E0006F915F914F913F912F910F900FBE0F90A3
:1002F0001F901895862FD5CE862FE8CE70938F004D
:1003000060938E00089580918C0090918D00892BD0
:1003100051F0759B08C0F3DE882329F0E0918C0032
:10032000F0918D0009940895863008F0865087700A
:10033000909192009295990F990F907C982B97B974
:10034000369A3699FECF84B125B190E0922B08956C
:100350008CB580648CBD08951F920F920FB60F92DA
:1003600011242F933F938F939F93AF93BF938091CB
:10037000940090919500A0919600B09197003091D3
:10038000930026E0230F2D3720F40296A11DB11D06
:1003900005C029E8230F0396A11DB11D20939300EA
:1003A0008093940090939500A0939600B09397004B
:1003B0008091980090919900A0919A00B0919B0033
:1003C0000196A11DB11D8093980090939900A09370
:1003D0009A00B0939B00BF91AF919F918F913F91F5
:1003E0002F910F900FBE0F901F90189578948AB59B
:1003F00082608ABD8AB581608ABD83B7826083BF0F
:1004000083B7816083BF89B7826089BF80B782600C
:1004100080BF80B7816080BF329A319A3098379A16
:100420000895E4DF95DF2CDEC0E0D0E032DE2097D7
:0A043000E9F3E6DDFBCFF894FFCFFF
:02043A000100BF
:00000001FF
